{
  "_format": "hh-sol-artifact-1",
  "contractName": "AnonNFTEx",
  "sourceName": "contracts/AnonNFTEx.sol",
  "abi": [
    {
      "inputs": [
        {
          "internalType": "address",
          "name": "semaphoreAddress",
          "type": "address"
        }
      ],
      "stateMutability": "nonpayable",
      "type": "constructor"
    },
    {
      "inputs": [],
      "name": "BUYER_BUY_AND_CLAIM_NFT_SIGNAL",
      "outputs": [
        {
          "internalType": "uint256",
          "name": "",
          "type": "uint256"
        }
      ],
      "stateMutability": "view",
      "type": "function"
    },
    {
      "inputs": [],
      "name": "BUYER_WITHDRAW_UNSPENT_ETH_SIGNAL",
      "outputs": [
        {
          "internalType": "uint256",
          "name": "",
          "type": "uint256"
        }
      ],
      "stateMutability": "view",
      "type": "function"
    },
    {
      "inputs": [],
      "name": "ETH_DEPOSITED_GROUP_ID",
      "outputs": [
        {
          "internalType": "uint256",
          "name": "",
          "type": "uint256"
        }
      ],
      "stateMutability": "view",
      "type": "function"
    },
    {
      "inputs": [],
      "name": "NFT_SOLD_GROUP_ID",
      "outputs": [
        {
          "internalType": "uint256",
          "name": "",
          "type": "uint256"
        }
      ],
      "stateMutability": "view",
      "type": "function"
    },
    {
      "inputs": [],
      "name": "SELLER_CLAIM_ETH_SIGNAL",
      "outputs": [
        {
          "internalType": "uint256",
          "name": "",
          "type": "uint256"
        }
      ],
      "stateMutability": "view",
      "type": "function"
    },
    {
      "inputs": [
        {
          "internalType": "address",
          "name": "nftAddr",
          "type": "address"
        },
        {
          "internalType": "uint256",
          "name": "tokenId",
          "type": "uint256"
        },
        {
          "internalType": "uint256",
          "name": "merkleTreeRoot",
          "type": "uint256"
        },
        {
          "internalType": "uint256",
          "name": "nullifierHash",
          "type": "uint256"
        },
        {
          "internalType": "uint256[8]",
          "name": "proof",
          "type": "uint256[8]"
        },
        {
          "internalType": "address",
          "name": "nftRecipient",
          "type": "address"
        }
      ],
      "name": "buyAndClaimNFT",
      "outputs": [],
      "stateMutability": "nonpayable",
      "type": "function"
    },
    {
      "inputs": [
        {
          "internalType": "address",
          "name": "ethRecipient",
          "type": "address"
        },
        {
          "internalType": "uint256",
          "name": "merkleTreeRoot",
          "type": "uint256"
        },
        {
          "internalType": "uint256",
          "name": "nullifierHash",
          "type": "uint256"
        },
        {
          "internalType": "uint256[8]",
          "name": "proof",
          "type": "uint256[8]"
        }
      ],
      "name": "claimETH",
      "outputs": [],
      "stateMutability": "nonpayable",
      "type": "function"
    },
    {
      "inputs": [
        {
          "internalType": "uint256",
          "name": "identityCommitment",
          "type": "uint256"
        }
      ],
      "name": "depositETH",
      "outputs": [],
      "stateMutability": "payable",
      "type": "function"
    },
    {
      "inputs": [
        {
          "internalType": "address",
          "name": "nftAddress",
          "type": "address"
        },
        {
          "internalType": "uint256",
          "name": "tokenId",
          "type": "uint256"
        },
        {
          "internalType": "uint256",
          "name": "identityCommitment",
          "type": "uint256"
        }
      ],
      "name": "depositNFT",
      "outputs": [],
      "stateMutability": "nonpayable",
      "type": "function"
    },
    {
      "inputs": [
        {
          "internalType": "address",
          "name": "",
          "type": "address"
        }
      ],
      "name": "ethDeposits",
      "outputs": [
        {
          "internalType": "uint256",
          "name": "",
          "type": "uint256"
        }
      ],
      "stateMutability": "view",
      "type": "function"
    },
    {
      "inputs": [
        {
          "internalType": "address",
          "name": "",
          "type": "address"
        },
        {
          "internalType": "uint256",
          "name": "",
          "type": "uint256"
        }
      ],
      "name": "nftDeposits",
      "outputs": [
        {
          "internalType": "address",
          "name": "sellerAddr",
          "type": "address"
        },
        {
          "internalType": "uint256",
          "name": "idCommitment",
          "type": "uint256"
        }
      ],
      "stateMutability": "view",
      "type": "function"
    },
    {
      "inputs": [],
      "name": "semaphore",
      "outputs": [
        {
          "internalType": "contract ISemaphore",
          "name": "",
          "type": "address"
        }
      ],
      "stateMutability": "view",
      "type": "function"
    },
    {
      "inputs": [
        {
          "internalType": "uint256",
          "name": "merkleTreeRoot",
          "type": "uint256"
        },
        {
          "internalType": "uint256",
          "name": "nullifierHash",
          "type": "uint256"
        },
        {
          "internalType": "uint256[8]",
          "name": "proof",
          "type": "uint256[8]"
        }
      ],
      "name": "withdrawETH",
      "outputs": [],
      "stateMutability": "nonpayable",
      "type": "function"
    },
    {
      "inputs": [
        {
          "internalType": "address",
          "name": "nftAddress",
          "type": "address"
        },
        {
          "internalType": "uint256",
          "name": "tokenId",
          "type": "uint256"
        }
      ],
      "name": "withdrawNFT",
      "outputs": [],
      "stateMutability": "nonpayable",
      "type": "function"
    }
  ],
  "bytecode": "0x60806040523480156200001157600080fd5b5060405162001d6038038062001d608339818101604052810190620000379190620001cc565b600160008190555080600160006101000a81548173ffffffffffffffffffffffffffffffffffffffff021916908373ffffffffffffffffffffffffffffffffffffffff160217905550600160009054906101000a900473ffffffffffffffffffffffffffffffffffffffff1673ffffffffffffffffffffffffffffffffffffffff16639c11214160016014306040518463ffffffff1660e01b8152600401620000e3939291906200022b565b600060405180830381600087803b158015620000fe57600080fd5b505af115801562000113573d6000803e3d6000fd5b50505050600160009054906101000a900473ffffffffffffffffffffffffffffffffffffffff1673ffffffffffffffffffffffffffffffffffffffff16639c11214160026014306040518463ffffffff1660e01b81526004016200017a939291906200022b565b600060405180830381600087803b1580156200019557600080fd5b505af1158015620001aa573d6000803e3d6000fd5b5050505050620002d4565b600081519050620001c681620002ba565b92915050565b600060208284031215620001df57600080fd5b6000620001ef84828501620001b5565b91505092915050565b620002038162000268565b82525050565b6200021481620002a6565b82525050565b62000225816200029c565b82525050565b60006060820190506200024260008301866200021a565b62000251602083018562000209565b620002606040830184620001f8565b949350505050565b600062000275826200027c565b9050919050565b600073ffffffffffffffffffffffffffffffffffffffff82169050919050565b6000819050919050565b6000620002b3826200029c565b9050919050565b620002c58162000268565b8114620002d157600080fd5b50565b611a7c80620002e46000396000f3fe6080604052600436106100dd5760003560e01c80637b5d25341161007f578063b9d1ed4a11610059578063b9d1ed4a1461028a578063d751da0b146102c7578063ef4f196a146102f2578063f8cfadd41461031d576100dd565b80637b5d2534146101f65780639286be0a14610221578063ae6132511461025f576100dd565b8063550df418116100bb578063550df418146101525780636088e93a1461017b57806372a8ccb4146101a45780637b2239f2146101cd576100dd565b806314e490f3146100e2578063480679ce1461010b5780635358fbda14610136575b600080fd5b3480156100ee57600080fd5b50610109600480360381019061010491906113d5565b610348565b005b34801561011757600080fd5b50610120610663565b60405161012d919061179f565b60405180910390f35b610150600480360381019061014b9190611460565b610668565b005b34801561015e57600080fd5b5061017960048036038101906101749190611371565b610861565b005b34801561018757600080fd5b506101a2600480360381019061019d91906112e6565b610a0c565b005b3480156101b057600080fd5b506101cb60048036038101906101c69190611322565b610c8d565b005b3480156101d957600080fd5b506101f460048036038101906101ef9190611489565b610f22565b005b34801561020257600080fd5b5061020b611194565b60405161021891906116a4565b60405180910390f35b34801561022d57600080fd5b50610248600480360381019061024391906112e6565b6111ba565b60405161025692919061167b565b60405180910390f35b34801561026b57600080fd5b5061027461120b565b604051610281919061179f565b60405180910390f35b34801561029657600080fd5b506102b160048036038101906102ac9190611294565b611210565b6040516102be919061179f565b60405180910390f35b3480156102d357600080fd5b506102dc611228565b6040516102e9919061179f565b60405180910390f35b3480156102fe57600080fd5b5061030761122d565b604051610314919061179f565b60405180910390f35b34801561032957600080fd5b50610332611232565b60405161033f919061179f565b60405180910390f35b6002600054141561038e576040517f08c379a00000000000000000000000000000000000000000000000000000000081526004016103859061177f565b60405180910390fd5b6002600081905550600160009054906101000a900473ffffffffffffffffffffffffffffffffffffffff1673ffffffffffffffffffffffffffffffffffffffff16633bc778e36002866001876002886040518763ffffffff1660e01b81526004016103fe969594939291906117e3565b600060405180830381600087803b15801561041857600080fd5b505af115801561042c573d6000803e3d6000fd5b50505050600160009054906101000a900473ffffffffffffffffffffffffffffffffffffffff1673ffffffffffffffffffffffffffffffffffffffff16631783efc36001600260008a73ffffffffffffffffffffffffffffffffffffffff1673ffffffffffffffffffffffffffffffffffffffff1681526020019081526020016000206000898152602001908152602001600020600101546040518363ffffffff1660e01b81526004016104e19291906117ba565b600060405180830381600087803b1580156104fb57600080fd5b505af115801561050f573d6000803e3d6000fd5b505050506040518060400160405280600073ffffffffffffffffffffffffffffffffffffffff1681526020016000815250600260008873ffffffffffffffffffffffffffffffffffffffff1673ffffffffffffffffffffffffffffffffffffffff168152602001908152602001600020600087815260200190815260200160002060008201518160000160006101000a81548173ffffffffffffffffffffffffffffffffffffffff021916908373ffffffffffffffffffffffffffffffffffffffff160217905550602082015181600101559050508573ffffffffffffffffffffffffffffffffffffffff166342842e0e3083886040518463ffffffff1660e01b815260040161062193929190611644565b600060405180830381600087803b15801561063b57600080fd5b505af115801561064f573d6000803e3d6000fd5b505050506001600081905550505050505050565b600181565b600260005414156106ae576040517f08c379a00000000000000000000000000000000000000000000000000000000081526004016106a59061177f565b60405180910390fd5b600260008190555067016345785d8a00003414610700576040517f08c379a00000000000000000000000000000000000000000000000000000000081526004016106f7906116df565b60405180910390fd5b6000600360003373ffffffffffffffffffffffffffffffffffffffff1673ffffffffffffffffffffffffffffffffffffffff1681526020019081526020016000205414610782576040517f08c379a00000000000000000000000000000000000000000000000000000000081526004016107799061171f565b60405180910390fd5b80600360003373ffffffffffffffffffffffffffffffffffffffff1673ffffffffffffffffffffffffffffffffffffffff16815260200190815260200160002081905550600160009054906101000a900473ffffffffffffffffffffffffffffffffffffffff1673ffffffffffffffffffffffffffffffffffffffff16631783efc36002836040518363ffffffff1660e01b81526004016108249291906117ba565b600060405180830381600087803b15801561083e57600080fd5b505af1158015610852573d6000803e3d6000fd5b50505050600160008190555050565b600260005414156108a7576040517f08c379a000000000000000000000000000000000000000000000000000000000815260040161089e9061177f565b60405180910390fd5b6002600081905550600160009054906101000a900473ffffffffffffffffffffffffffffffffffffffff1673ffffffffffffffffffffffffffffffffffffffff16633bc778e36001856002866001876040518763ffffffff1660e01b8152600401610917969594939291906117e3565b600060405180830381600087803b15801561093157600080fd5b505af1158015610945573d6000803e3d6000fd5b5050505060008473ffffffffffffffffffffffffffffffffffffffff1667016345785d8a00006040516109779061162f565b60006040518083038185875af1925050503d80600081146109b4576040519150601f19603f3d011682016040523d82523d6000602084013e6109b9565b606091505b50509050806109fd576040517f08c379a00000000000000000000000000000000000000000000000000000000081526004016109f49061173f565b60405180910390fd5b50600160008190555050505050565b60026000541415610a52576040517f08c379a0000000000000000000000000000000000000000000000000000000008152600401610a499061177f565b60405180910390fd5b60026000819055503373ffffffffffffffffffffffffffffffffffffffff16600260008473ffffffffffffffffffffffffffffffffffffffff1673ffffffffffffffffffffffffffffffffffffffff168152602001908152602001600020600083815260200190815260200160002060000160009054906101000a900473ffffffffffffffffffffffffffffffffffffffff1673ffffffffffffffffffffffffffffffffffffffff1614610b3b576040517f08c379a0000000000000000000000000000000000000000000000000000000008152600401610b32906116bf565b60405180910390fd5b60008290508073ffffffffffffffffffffffffffffffffffffffff166342842e0e3033856040518463ffffffff1660e01b8152600401610b7d93929190611644565b600060405180830381600087803b158015610b9757600080fd5b505af1158015610bab573d6000803e3d6000fd5b505050506040518060400160405280600073ffffffffffffffffffffffffffffffffffffffff1681526020016000815250600260008573ffffffffffffffffffffffffffffffffffffffff1673ffffffffffffffffffffffffffffffffffffffff168152602001908152602001600020600084815260200190815260200160002060008201518160000160006101000a81548173ffffffffffffffffffffffffffffffffffffffff021916908373ffffffffffffffffffffffffffffffffffffffff160217905550602082015181600101559050505060016000819055505050565b60026000541415610cd3576040517f08c379a0000000000000000000000000000000000000000000000000000000008152600401610cca9061177f565b60405180910390fd5b600260008190555060008390503373ffffffffffffffffffffffffffffffffffffffff168173ffffffffffffffffffffffffffffffffffffffff16636352211e856040518263ffffffff1660e01b8152600401610d30919061179f565b60206040518083038186803b158015610d4857600080fd5b505afa158015610d5c573d6000803e3d6000fd5b505050506040513d601f19601f82011682018060405250810190610d8091906112bd565b73ffffffffffffffffffffffffffffffffffffffff1614610dd6576040517f08c379a0000000000000000000000000000000000000000000000000000000008152600401610dcd9061175f565b60405180910390fd5b8073ffffffffffffffffffffffffffffffffffffffff166323b872dd3330866040518463ffffffff1660e01b8152600401610e1393929190611644565b600060405180830381600087803b158015610e2d57600080fd5b505af1158015610e41573d6000803e3d6000fd5b5050505060405180604001604052803373ffffffffffffffffffffffffffffffffffffffff16815260200183815250600260008673ffffffffffffffffffffffffffffffffffffffff1673ffffffffffffffffffffffffffffffffffffffff168152602001908152602001600020600085815260200190815260200160002060008201518160000160006101000a81548173ffffffffffffffffffffffffffffffffffffffff021916908373ffffffffffffffffffffffffffffffffffffffff16021790555060208201518160010155905050506001600081905550505050565b60026000541415610f68576040517f08c379a0000000000000000000000000000000000000000000000000000000008152600401610f5f9061177f565b60405180910390fd5b60026000819055506000600360003373ffffffffffffffffffffffffffffffffffffffff1673ffffffffffffffffffffffffffffffffffffffff168152602001908152602001600020541415610ff3576040517f08c379a0000000000000000000000000000000000000000000000000000000008152600401610fea906116ff565b60405180910390fd5b6000600360003373ffffffffffffffffffffffffffffffffffffffff1673ffffffffffffffffffffffffffffffffffffffff16815260200190815260200160002081905550600160009054906101000a900473ffffffffffffffffffffffffffffffffffffffff1673ffffffffffffffffffffffffffffffffffffffff16633bc778e36002856000866002876040518763ffffffff1660e01b81526004016110a0969594939291906117e3565b600060405180830381600087803b1580156110ba57600080fd5b505af11580156110ce573d6000803e3d6000fd5b5050505060003373ffffffffffffffffffffffffffffffffffffffff1667016345785d8a00006040516111009061162f565b60006040518083038185875af1925050503d806000811461113d576040519150601f19603f3d011682016040523d82523d6000602084013e611142565b606091505b5050905080611186576040517f08c379a000000000000000000000000000000000000000000000000000000000815260040161117d9061173f565b60405180910390fd5b506001600081905550505050565b600160009054906101000a900473ffffffffffffffffffffffffffffffffffffffff1681565b6002602052816000526040600020602052806000526040600020600091509150508060000160009054906101000a900473ffffffffffffffffffffffffffffffffffffffff16908060010154905082565b600081565b60036020528060005260406000206000915090505481565b600281565b600181565b600281565b60008135905061124681611a18565b92915050565b60008151905061125b81611a18565b92915050565b60008190508260206008028201111561127957600080fd5b92915050565b60008135905061128e81611a2f565b92915050565b6000602082840312156112a657600080fd5b60006112b484828501611237565b91505092915050565b6000602082840312156112cf57600080fd5b60006112dd8482850161124c565b91505092915050565b600080604083850312156112f957600080fd5b600061130785828601611237565b92505060206113188582860161127f565b9150509250929050565b60008060006060848603121561133757600080fd5b600061134586828701611237565b93505060206113568682870161127f565b92505060406113678682870161127f565b9150509250925092565b600080600080610160858703121561138857600080fd5b600061139687828801611237565b94505060206113a78782880161127f565b93505060406113b88782880161127f565b92505060606113c987828801611261565b91505092959194509250565b6000806000806000806101a087890312156113ef57600080fd5b60006113fd89828a01611237565b965050602061140e89828a0161127f565b955050604061141f89828a0161127f565b945050606061143089828a0161127f565b935050608061144189828a01611261565b92505061018061145389828a01611237565b9150509295509295509295565b60006020828403121561147257600080fd5b60006114808482850161127f565b91505092915050565b6000806000610140848603121561149f57600080fd5b60006114ad8682870161127f565b93505060206114be8682870161127f565b92505060406114cf86828701611261565b9150509250925092565b6114e281611861565b82525050565b6114f561010083836118c1565b5050565b6115028161189d565b82525050565b6000611515603183611850565b9150611520826118d0565b604082019050919050565b6000611538601f83611850565b91506115438261191f565b602082019050919050565b600061155b601483611850565b915061156682611948565b602082019050919050565b600061157e601883611850565b915061158982611971565b602082019050919050565b60006115a1600083611845565b91506115ac8261199a565b600082019050919050565b60006115c4601383611850565b91506115cf8261199d565b602082019050919050565b60006115e7601783611850565b91506115f2826119c6565b602082019050919050565b600061160a601f83611850565b9150611615826119ef565b602082019050919050565b61162981611893565b82525050565b600061163a82611594565b9150819050919050565b600060608201905061165960008301866114d9565b61166660208301856114d9565b6116736040830184611620565b949350505050565b600060408201905061169060008301856114d9565b61169d6020830184611620565b9392505050565b60006020820190506116b960008301846114f9565b92915050565b600060208201905081810360008301526116d881611508565b9050919050565b600060208201905081810360008301526116f88161152b565b9050919050565b600060208201905081810360008301526117188161154e565b9050919050565b6000602082019050818103600083015261173881611571565b9050919050565b60006020820190508181036000830152611758816115b7565b9050919050565b60006020820190508181036000830152611778816115da565b9050919050565b60006020820190508181036000830152611798816115fd565b9050919050565b60006020820190506117b46000830184611620565b92915050565b60006040820190506117cf6000830185611620565b6117dc6020830184611620565b9392505050565b60006101a0820190506117f96000830189611620565b6118066020830188611620565b6118136040830187611620565b6118206060830186611620565b61182d6080830185611620565b61183a60a08301846114e8565b979650505050505050565b600081905092915050565b600082825260208201905092915050565b600061186c82611873565b9050919050565b600073ffffffffffffffffffffffffffffffffffffffff82169050919050565b6000819050919050565b60006118a8826118af565b9050919050565b60006118ba82611873565b9050919050565b82818337600083830152505050565b7f6f6e6c79206465706f7369746f722063616e2077697468647261772c206f722060008201527f4e4654206e6f74206465706f7369746564000000000000000000000000000000602082015250565b7f4465706f736974206d7573742062652065786163746c7920302e312045544800600082015250565b7f4e6f20455448206465706f73697420666f756e64000000000000000000000000600082015250565b7f455448206465706f73697420616c7265616479206d6164650000000000000000600082015250565b50565b7f455448207472616e73666572206661696c656400000000000000000000000000600082015250565b7f596f7520646f206e6f74206f776e2074686973204e4654000000000000000000600082015250565b7f5265656e7472616e637947756172643a207265656e7472616e742063616c6c00600082015250565b611a2181611861565b8114611a2c57600080fd5b50565b611a3881611893565b8114611a4357600080fd5b5056fea26469706673582212204843abc4736c448884a672be22f7db145324440d7c2533f4dcae11dfb6c3eca264736f6c63430008040033",
  "linkReferences": {},
  "deployedLinkReferences": {}
}