{
  "_format": "hh-sol-artifact-1",
  "contractName": "SimpleNFT",
  "sourceName": "contracts/SimpleNFT.sol",
  "abi": [
    {
      "inputs": [],
      "stateMutability": "nonpayable",
      "type": "constructor"
    },
    {
      "anonymous": false,
      "inputs": [
        {
          "indexed": true,
          "internalType": "address",
          "name": "owner",
          "type": "address"
        },
        {
          "indexed": true,
          "internalType": "address",
          "name": "approved",
          "type": "address"
        },
        {
          "indexed": true,
          "internalType": "uint256",
          "name": "tokenId",
          "type": "uint256"
        }
      ],
      "name": "Approval",
      "type": "event"
    },
    {
      "anonymous": false,
      "inputs": [
        {
          "indexed": true,
          "internalType": "address",
          "name": "owner",
          "type": "address"
        },
        {
          "indexed": true,
          "internalType": "address",
          "name": "operator",
          "type": "address"
        },
        {
          "indexed": false,
          "internalType": "bool",
          "name": "approved",
          "type": "bool"
        }
      ],
      "name": "ApprovalForAll",
      "type": "event"
    },
    {
      "anonymous": false,
      "inputs": [
        {
          "indexed": true,
          "internalType": "address",
          "name": "previousOwner",
          "type": "address"
        },
        {
          "indexed": true,
          "internalType": "address",
          "name": "newOwner",
          "type": "address"
        }
      ],
      "name": "OwnershipTransferred",
      "type": "event"
    },
    {
      "anonymous": false,
      "inputs": [
        {
          "indexed": true,
          "internalType": "address",
          "name": "from",
          "type": "address"
        },
        {
          "indexed": true,
          "internalType": "address",
          "name": "to",
          "type": "address"
        },
        {
          "indexed": true,
          "internalType": "uint256",
          "name": "tokenId",
          "type": "uint256"
        }
      ],
      "name": "Transfer",
      "type": "event"
    },
    {
      "inputs": [
        {
          "internalType": "address",
          "name": "to",
          "type": "address"
        },
        {
          "internalType": "uint256",
          "name": "tokenId",
          "type": "uint256"
        }
      ],
      "name": "approve",
      "outputs": [],
      "stateMutability": "nonpayable",
      "type": "function"
    },
    {
      "inputs": [
        {
          "internalType": "address",
          "name": "owner",
          "type": "address"
        }
      ],
      "name": "balanceOf",
      "outputs": [
        {
          "internalType": "uint256",
          "name": "",
          "type": "uint256"
        }
      ],
      "stateMutability": "view",
      "type": "function"
    },
    {
      "inputs": [
        {
          "internalType": "uint256",
          "name": "tokenId",
          "type": "uint256"
        }
      ],
      "name": "getApproved",
      "outputs": [
        {
          "internalType": "address",
          "name": "",
          "type": "address"
        }
      ],
      "stateMutability": "view",
      "type": "function"
    },
    {
      "inputs": [
        {
          "internalType": "address",
          "name": "owner",
          "type": "address"
        },
        {
          "internalType": "address",
          "name": "operator",
          "type": "address"
        }
      ],
      "name": "isApprovedForAll",
      "outputs": [
        {
          "internalType": "bool",
          "name": "",
          "type": "bool"
        }
      ],
      "stateMutability": "view",
      "type": "function"
    },
    {
      "inputs": [
        {
          "internalType": "address",
          "name": "recipient",
          "type": "address"
        }
      ],
      "name": "mintNFT",
      "outputs": [
        {
          "internalType": "uint256",
          "name": "",
          "type": "uint256"
        }
      ],
      "stateMutability": "nonpayable",
      "type": "function"
    },
    {
      "inputs": [],
      "name": "name",
      "outputs": [
        {
          "internalType": "string",
          "name": "",
          "type": "string"
        }
      ],
      "stateMutability": "view",
      "type": "function"
    },
    {
      "inputs": [],
      "name": "owner",
      "outputs": [
        {
          "internalType": "address",
          "name": "",
          "type": "address"
        }
      ],
      "stateMutability": "view",
      "type": "function"
    },
    {
      "inputs": [
        {
          "internalType": "uint256",
          "name": "tokenId",
          "type": "uint256"
        }
      ],
      "name": "ownerOf",
      "outputs": [
        {
          "internalType": "address",
          "name": "",
          "type": "address"
        }
      ],
      "stateMutability": "view",
      "type": "function"
    },
    {
      "inputs": [],
      "name": "renounceOwnership",
      "outputs": [],
      "stateMutability": "nonpayable",
      "type": "function"
    },
    {
      "inputs": [
        {
          "internalType": "address",
          "name": "from",
          "type": "address"
        },
        {
          "internalType": "address",
          "name": "to",
          "type": "address"
        },
        {
          "internalType": "uint256",
          "name": "tokenId",
          "type": "uint256"
        }
      ],
      "name": "safeTransferFrom",
      "outputs": [],
      "stateMutability": "nonpayable",
      "type": "function"
    },
    {
      "inputs": [
        {
          "internalType": "address",
          "name": "from",
          "type": "address"
        },
        {
          "internalType": "address",
          "name": "to",
          "type": "address"
        },
        {
          "internalType": "uint256",
          "name": "tokenId",
          "type": "uint256"
        },
        {
          "internalType": "bytes",
          "name": "data",
          "type": "bytes"
        }
      ],
      "name": "safeTransferFrom",
      "outputs": [],
      "stateMutability": "nonpayable",
      "type": "function"
    },
    {
      "inputs": [
        {
          "internalType": "address",
          "name": "operator",
          "type": "address"
        },
        {
          "internalType": "bool",
          "name": "approved",
          "type": "bool"
        }
      ],
      "name": "setApprovalForAll",
      "outputs": [],
      "stateMutability": "nonpayable",
      "type": "function"
    },
    {
      "inputs": [
        {
          "internalType": "bytes4",
          "name": "interfaceId",
          "type": "bytes4"
        }
      ],
      "name": "supportsInterface",
      "outputs": [
        {
          "internalType": "bool",
          "name": "",
          "type": "bool"
        }
      ],
      "stateMutability": "view",
      "type": "function"
    },
    {
      "inputs": [],
      "name": "symbol",
      "outputs": [
        {
          "internalType": "string",
          "name": "",
          "type": "string"
        }
      ],
      "stateMutability": "view",
      "type": "function"
    },
    {
      "inputs": [
        {
          "internalType": "uint256",
          "name": "tokenId",
          "type": "uint256"
        }
      ],
      "name": "tokenURI",
      "outputs": [
        {
          "internalType": "string",
          "name": "",
          "type": "string"
        }
      ],
      "stateMutability": "view",
      "type": "function"
    },
    {
      "inputs": [
        {
          "internalType": "address",
          "name": "from",
          "type": "address"
        },
        {
          "internalType": "address",
          "name": "to",
          "type": "address"
        },
        {
          "internalType": "uint256",
          "name": "tokenId",
          "type": "uint256"
        }
      ],
      "name": "transferFrom",
      "outputs": [],
      "stateMutability": "nonpayable",
      "type": "function"
    },
    {
      "inputs": [
        {
          "internalType": "address",
          "name": "newOwner",
          "type": "address"
        }
      ],
      "name": "transferOwnership",
      "outputs": [],
      "stateMutability": "nonpayable",
      "type": "function"
    }
  ],
  "bytecode": "0x608060405260006007553480156200001657600080fd5b506040518060400160405280600981526020017f53696d706c654e465400000000000000000000000000000000000000000000008152506040518060400160405280600481526020017f534e46540000000000000000000000000000000000000000000000000000000081525081600090805190602001906200009b929190620001ab565b508060019080519060200190620000b4929190620001ab565b505050620000d7620000cb620000dd60201b60201c565b620000e560201b60201c565b620002c0565b600033905090565b6000600660009054906101000a900473ffffffffffffffffffffffffffffffffffffffff16905081600660006101000a81548173ffffffffffffffffffffffffffffffffffffffff021916908373ffffffffffffffffffffffffffffffffffffffff1602179055508173ffffffffffffffffffffffffffffffffffffffff168173ffffffffffffffffffffffffffffffffffffffff167f8be0079c531659141344cd1fd0a4f28419497f9722a3daafe3b4186f6b6457e060405160405180910390a35050565b828054620001b9906200025b565b90600052602060002090601f016020900481019282620001dd576000855562000229565b82601f10620001f857805160ff191683800117855562000229565b8280016001018555821562000229579182015b82811115620002285782518255916020019190600101906200020b565b5b5090506200023891906200023c565b5090565b5b80821115620002575760008160009055506001016200023d565b5090565b600060028204905060018216806200027457607f821691505b602082108114156200028b576200028a62000291565b5b50919050565b7f4e487b7100000000000000000000000000000000000000000000000000000000600052602260045260246000fd5b61288080620002d06000396000f3fe608060405234801561001057600080fd5b506004361061010b5760003560e01c806370a08231116100a2578063a22cb46511610071578063a22cb465146102b8578063b88d4fde146102d4578063c87b56dd146102f0578063e985e9c514610320578063f2fde38b146103505761010b565b806370a0823114610242578063715018a6146102725780638da5cb5b1461027c57806395d89b411461029a5761010b565b806323b872dd116100de57806323b872dd146101aa57806342842e0e146101c657806354ba0f27146101e25780636352211e146102125761010b565b806301ffc9a71461011057806306fdde0314610140578063081812fc1461015e578063095ea7b31461018e575b600080fd5b61012a60048036038101906101259190611b60565b61036c565b6040516101379190611efd565b60405180910390f35b61014861044e565b6040516101559190611f18565b60405180910390f35b61017860048036038101906101739190611bb2565b6104e0565b6040516101859190611e96565b60405180910390f35b6101a860048036038101906101a39190611b24565b610526565b005b6101c460048036038101906101bf9190611a1e565b61063e565b005b6101e060048036038101906101db9190611a1e565b61069e565b005b6101fc60048036038101906101f791906119b9565b6106be565b60405161020991906120da565b60405180910390f35b61022c60048036038101906102279190611bb2565b6106f0565b6040516102399190611e96565b60405180910390f35b61025c600480360381019061025791906119b9565b6107a2565b60405161026991906120da565b60405180910390f35b61027a61085a565b005b61028461086e565b6040516102919190611e96565b60405180910390f35b6102a2610898565b6040516102af9190611f18565b60405180910390f35b6102d260048036038101906102cd9190611ae8565b61092a565b005b6102ee60048036038101906102e99190611a6d565b610940565b005b61030a60048036038101906103059190611bb2565b6109a2565b6040516103179190611f18565b60405180910390f35b61033a600480360381019061033591906119e2565b610a0a565b6040516103479190611efd565b60405180910390f35b61036a600480360381019061036591906119b9565b610a9e565b005b60007f80ac58cd000000000000000000000000000000000000000000000000000000007bffffffffffffffffffffffffffffffffffffffffffffffffffffffff1916827bffffffffffffffffffffffffffffffffffffffffffffffffffffffff1916148061043757507f5b5e139f000000000000000000000000000000000000000000000000000000007bffffffffffffffffffffffffffffffffffffffffffffffffffffffff1916827bffffffffffffffffffffffffffffffffffffffffffffffffffffffff1916145b80610447575061044682610b22565b5b9050919050565b60606000805461045d906122ff565b80601f0160208091040260200160405190810160405280929190818152602001828054610489906122ff565b80156104d65780601f106104ab576101008083540402835291602001916104d6565b820191906000526020600020905b8154815290600101906020018083116104b957829003601f168201915b5050505050905090565b60006104eb82610b8c565b6004600083815260200190815260200160002060009054906101000a900473ffffffffffffffffffffffffffffffffffffffff169050919050565b6000610531826106f0565b90508073ffffffffffffffffffffffffffffffffffffffff168373ffffffffffffffffffffffffffffffffffffffff1614156105a2576040517f08c379a00000000000000000000000000000000000000000000000000000000081526004016105999061209a565b60405180910390fd5b8073ffffffffffffffffffffffffffffffffffffffff166105c1610bd7565b73ffffffffffffffffffffffffffffffffffffffff1614806105f057506105ef816105ea610bd7565b610a0a565b5b61062f576040517f08c379a00000000000000000000000000000000000000000000000000000000081526004016106269061201a565b60405180910390fd5b6106398383610bdf565b505050565b61064f610649610bd7565b82610c98565b61068e576040517f08c379a0000000000000000000000000000000000000000000000000000000008152600401610685906120ba565b60405180910390fd5b610699838383610d2d565b505050565b6106b983838360405180602001604052806000815250610940565b505050565b60006001600760008282546106d3919061218e565b925050819055506106e682600754610f94565b6007549050919050565b6000806002600084815260200190815260200160002060009054906101000a900473ffffffffffffffffffffffffffffffffffffffff169050600073ffffffffffffffffffffffffffffffffffffffff168173ffffffffffffffffffffffffffffffffffffffff161415610799576040517f08c379a00000000000000000000000000000000000000000000000000000000081526004016107909061207a565b60405180910390fd5b80915050919050565b60008073ffffffffffffffffffffffffffffffffffffffff168273ffffffffffffffffffffffffffffffffffffffff161415610813576040517f08c379a000000000000000000000000000000000000000000000000000000000815260040161080a90611ffa565b60405180910390fd5b600360008373ffffffffffffffffffffffffffffffffffffffff1673ffffffffffffffffffffffffffffffffffffffff168152602001908152602001600020549050919050565b610862610fb2565b61086c6000611030565b565b6000600660009054906101000a900473ffffffffffffffffffffffffffffffffffffffff16905090565b6060600180546108a7906122ff565b80601f01602080910402602001604051908101604052809291908181526020018280546108d3906122ff565b80156109205780601f106108f557610100808354040283529160200191610920565b820191906000526020600020905b81548152906001019060200180831161090357829003601f168201915b5050505050905090565b61093c610935610bd7565b83836110f6565b5050565b61095161094b610bd7565b83610c98565b610990576040517f08c379a0000000000000000000000000000000000000000000000000000000008152600401610987906120ba565b60405180910390fd5b61099c84848484611263565b50505050565b60606109ad82610b8c565b60006109b76112bf565b905060008151116109d75760405180602001604052806000815250610a02565b806109e1846112d6565b6040516020016109f2929190611e72565b6040516020818303038152906040525b915050919050565b6000600560008473ffffffffffffffffffffffffffffffffffffffff1673ffffffffffffffffffffffffffffffffffffffff16815260200190815260200160002060008373ffffffffffffffffffffffffffffffffffffffff1673ffffffffffffffffffffffffffffffffffffffff16815260200190815260200160002060009054906101000a900460ff16905092915050565b610aa6610fb2565b600073ffffffffffffffffffffffffffffffffffffffff168173ffffffffffffffffffffffffffffffffffffffff161415610b16576040517f08c379a0000000000000000000000000000000000000000000000000000000008152600401610b0d90611f5a565b60405180910390fd5b610b1f81611030565b50565b60007f01ffc9a7000000000000000000000000000000000000000000000000000000007bffffffffffffffffffffffffffffffffffffffffffffffffffffffff1916827bffffffffffffffffffffffffffffffffffffffffffffffffffffffff1916149050919050565b610b9581611483565b610bd4576040517f08c379a0000000000000000000000000000000000000000000000000000000008152600401610bcb9061207a565b60405180910390fd5b50565b600033905090565b816004600083815260200190815260200160002060006101000a81548173ffffffffffffffffffffffffffffffffffffffff021916908373ffffffffffffffffffffffffffffffffffffffff160217905550808273ffffffffffffffffffffffffffffffffffffffff16610c52836106f0565b73ffffffffffffffffffffffffffffffffffffffff167f8c5be1e5ebec7d5bd14f71427d1e84f3dd0314c0f7b2291e5b200ac8c7c3b92560405160405180910390a45050565b600080610ca4836106f0565b90508073ffffffffffffffffffffffffffffffffffffffff168473ffffffffffffffffffffffffffffffffffffffff161480610ce65750610ce58185610a0a565b5b80610d2457508373ffffffffffffffffffffffffffffffffffffffff16610d0c846104e0565b73ffffffffffffffffffffffffffffffffffffffff16145b91505092915050565b8273ffffffffffffffffffffffffffffffffffffffff16610d4d826106f0565b73ffffffffffffffffffffffffffffffffffffffff1614610da3576040517f08c379a0000000000000000000000000000000000000000000000000000000008152600401610d9a90611f7a565b60405180910390fd5b600073ffffffffffffffffffffffffffffffffffffffff168273ffffffffffffffffffffffffffffffffffffffff161415610e13576040517f08c379a0000000000000000000000000000000000000000000000000000000008152600401610e0a90611fba565b60405180910390fd5b610e1e8383836114ef565b610e29600082610bdf565b6001600360008573ffffffffffffffffffffffffffffffffffffffff1673ffffffffffffffffffffffffffffffffffffffff1681526020019081526020016000206000828254610e799190612215565b925050819055506001600360008473ffffffffffffffffffffffffffffffffffffffff1673ffffffffffffffffffffffffffffffffffffffff1681526020019081526020016000206000828254610ed0919061218e565b92505081905550816002600083815260200190815260200160002060006101000a81548173ffffffffffffffffffffffffffffffffffffffff021916908373ffffffffffffffffffffffffffffffffffffffff160217905550808273ffffffffffffffffffffffffffffffffffffffff168473ffffffffffffffffffffffffffffffffffffffff167fddf252ad1be2c89b69c2b068fc378daa952ba7f163c4a11628f55a4df523b3ef60405160405180910390a4610f8f8383836114f4565b505050565b610fae8282604051806020016040528060008152506114f9565b5050565b610fba610bd7565b73ffffffffffffffffffffffffffffffffffffffff16610fd861086e565b73ffffffffffffffffffffffffffffffffffffffff161461102e576040517f08c379a00000000000000000000000000000000000000000000000000000000081526004016110259061205a565b60405180910390fd5b565b6000600660009054906101000a900473ffffffffffffffffffffffffffffffffffffffff16905081600660006101000a81548173ffffffffffffffffffffffffffffffffffffffff021916908373ffffffffffffffffffffffffffffffffffffffff1602179055508173ffffffffffffffffffffffffffffffffffffffff168173ffffffffffffffffffffffffffffffffffffffff167f8be0079c531659141344cd1fd0a4f28419497f9722a3daafe3b4186f6b6457e060405160405180910390a35050565b8173ffffffffffffffffffffffffffffffffffffffff168373ffffffffffffffffffffffffffffffffffffffff161415611165576040517f08c379a000000000000000000000000000000000000000000000000000000000815260040161115c90611fda565b60405180910390fd5b80600560008573ffffffffffffffffffffffffffffffffffffffff1673ffffffffffffffffffffffffffffffffffffffff16815260200190815260200160002060008473ffffffffffffffffffffffffffffffffffffffff1673ffffffffffffffffffffffffffffffffffffffff16815260200190815260200160002060006101000a81548160ff0219169083151502179055508173ffffffffffffffffffffffffffffffffffffffff168373ffffffffffffffffffffffffffffffffffffffff167f17307eab39ab6107e8899845ad3d59bd9653f200f220920489ca2b5937696c31836040516112569190611efd565b60405180910390a3505050565b61126e848484610d2d565b61127a84848484611554565b6112b9576040517f08c379a00000000000000000000000000000000000000000000000000000000081526004016112b090611f3a565b60405180910390fd5b50505050565b606060405180602001604052806000815250905090565b6060600082141561131e576040518060400160405280600181526020017f3000000000000000000000000000000000000000000000000000000000000000815250905061147e565b600082905060005b6000821461135057808061133990612362565b915050600a8261134991906121e4565b9150611326565b60008167ffffffffffffffff811115611392577f4e487b7100000000000000000000000000000000000000000000000000000000600052604160045260246000fd5b6040519080825280601f01601f1916602001820160405280156113c45781602001600182028036833780820191505090505b5090505b60008514611477576001826113dd9190612215565b9150600a856113ec91906123ab565b60306113f8919061218e565b60f81b818381518110611434577f4e487b7100000000000000000000000000000000000000000000000000000000600052603260045260246000fd5b60200101907effffffffffffffffffffffffffffffffffffffffffffffffffffffffffffff1916908160001a905350600a8561147091906121e4565b94506113c8565b8093505050505b919050565b60008073ffffffffffffffffffffffffffffffffffffffff166002600084815260200190815260200160002060009054906101000a900473ffffffffffffffffffffffffffffffffffffffff1673ffffffffffffffffffffffffffffffffffffffff1614159050919050565b505050565b505050565b61150383836116eb565b6115106000848484611554565b61154f576040517f08c379a000000000000000000000000000000000000000000000000000000000815260040161154690611f3a565b60405180910390fd5b505050565b60006115758473ffffffffffffffffffffffffffffffffffffffff166118c5565b156116de578373ffffffffffffffffffffffffffffffffffffffff1663150b7a0261159e610bd7565b8786866040518563ffffffff1660e01b81526004016115c09493929190611eb1565b602060405180830381600087803b1580156115da57600080fd5b505af192505050801561160b57506040513d601f19601f820116820180604052508101906116089190611b89565b60015b61168e573d806000811461163b576040519150601f19603f3d011682016040523d82523d6000602084013e611640565b606091505b50600081511415611686576040517f08c379a000000000000000000000000000000000000000000000000000000000815260040161167d90611f3a565b60405180910390fd5b805181602001fd5b63150b7a0260e01b7bffffffffffffffffffffffffffffffffffffffffffffffffffffffff1916817bffffffffffffffffffffffffffffffffffffffffffffffffffffffff1916149150506116e3565b600190505b949350505050565b600073ffffffffffffffffffffffffffffffffffffffff168273ffffffffffffffffffffffffffffffffffffffff16141561175b576040517f08c379a00000000000000000000000000000000000000000000000000000000081526004016117529061203a565b60405180910390fd5b61176481611483565b156117a4576040517f08c379a000000000000000000000000000000000000000000000000000000000815260040161179b90611f9a565b60405180910390fd5b6117b0600083836114ef565b6001600360008473ffffffffffffffffffffffffffffffffffffffff1673ffffffffffffffffffffffffffffffffffffffff1681526020019081526020016000206000828254611800919061218e565b92505081905550816002600083815260200190815260200160002060006101000a81548173ffffffffffffffffffffffffffffffffffffffff021916908373ffffffffffffffffffffffffffffffffffffffff160217905550808273ffffffffffffffffffffffffffffffffffffffff16600073ffffffffffffffffffffffffffffffffffffffff167fddf252ad1be2c89b69c2b068fc378daa952ba7f163c4a11628f55a4df523b3ef60405160405180910390a46118c1600083836114f4565b5050565b6000808273ffffffffffffffffffffffffffffffffffffffff163b119050919050565b60006118fb6118f68461211a565b6120f5565b90508281526020810184848401111561191357600080fd5b61191e8482856122bd565b509392505050565b600081359050611935816127ee565b92915050565b60008135905061194a81612805565b92915050565b60008135905061195f8161281c565b92915050565b6000815190506119748161281c565b92915050565b600082601f83011261198b57600080fd5b813561199b8482602086016118e8565b91505092915050565b6000813590506119b381612833565b92915050565b6000602082840312156119cb57600080fd5b60006119d984828501611926565b91505092915050565b600080604083850312156119f557600080fd5b6000611a0385828601611926565b9250506020611a1485828601611926565b9150509250929050565b600080600060608486031215611a3357600080fd5b6000611a4186828701611926565b9350506020611a5286828701611926565b9250506040611a63868287016119a4565b9150509250925092565b60008060008060808587031215611a8357600080fd5b6000611a9187828801611926565b9450506020611aa287828801611926565b9350506040611ab3878288016119a4565b925050606085013567ffffffffffffffff811115611ad057600080fd5b611adc8782880161197a565b91505092959194509250565b60008060408385031215611afb57600080fd5b6000611b0985828601611926565b9250506020611b1a8582860161193b565b9150509250929050565b60008060408385031215611b3757600080fd5b6000611b4585828601611926565b9250506020611b56858286016119a4565b9150509250929050565b600060208284031215611b7257600080fd5b6000611b8084828501611950565b91505092915050565b600060208284031215611b9b57600080fd5b6000611ba984828501611965565b91505092915050565b600060208284031215611bc457600080fd5b6000611bd2848285016119a4565b91505092915050565b611be481612249565b82525050565b611bf38161225b565b82525050565b6000611c048261214b565b611c0e8185612161565b9350611c1e8185602086016122cc565b611c2781612498565b840191505092915050565b6000611c3d82612156565b611c478185612172565b9350611c578185602086016122cc565b611c6081612498565b840191505092915050565b6000611c7682612156565b611c808185612183565b9350611c908185602086016122cc565b80840191505092915050565b6000611ca9603283612172565b9150611cb4826124a9565b604082019050919050565b6000611ccc602683612172565b9150611cd7826124f8565b604082019050919050565b6000611cef602583612172565b9150611cfa82612547565b604082019050919050565b6000611d12601c83612172565b9150611d1d82612596565b602082019050919050565b6000611d35602483612172565b9150611d40826125bf565b604082019050919050565b6000611d58601983612172565b9150611d638261260e565b602082019050919050565b6000611d7b602983612172565b9150611d8682612637565b604082019050919050565b6000611d9e603e83612172565b9150611da982612686565b604082019050919050565b6000611dc1602083612172565b9150611dcc826126d5565b602082019050919050565b6000611de4602083612172565b9150611def826126fe565b602082019050919050565b6000611e07601883612172565b9150611e1282612727565b602082019050919050565b6000611e2a602183612172565b9150611e3582612750565b604082019050919050565b6000611e4d602e83612172565b9150611e588261279f565b604082019050919050565b611e6c816122b3565b82525050565b6000611e7e8285611c6b565b9150611e8a8284611c6b565b91508190509392505050565b6000602082019050611eab6000830184611bdb565b92915050565b6000608082019050611ec66000830187611bdb565b611ed36020830186611bdb565b611ee06040830185611e63565b8181036060830152611ef28184611bf9565b905095945050505050565b6000602082019050611f126000830184611bea565b92915050565b60006020820190508181036000830152611f328184611c32565b905092915050565b60006020820190508181036000830152611f5381611c9c565b9050919050565b60006020820190508181036000830152611f7381611cbf565b9050919050565b60006020820190508181036000830152611f9381611ce2565b9050919050565b60006020820190508181036000830152611fb381611d05565b9050919050565b60006020820190508181036000830152611fd381611d28565b9050919050565b60006020820190508181036000830152611ff381611d4b565b9050919050565b6000602082019050818103600083015261201381611d6e565b9050919050565b6000602082019050818103600083015261203381611d91565b9050919050565b6000602082019050818103600083015261205381611db4565b9050919050565b6000602082019050818103600083015261207381611dd7565b9050919050565b6000602082019050818103600083015261209381611dfa565b9050919050565b600060208201905081810360008301526120b381611e1d565b9050919050565b600060208201905081810360008301526120d381611e40565b9050919050565b60006020820190506120ef6000830184611e63565b92915050565b60006120ff612110565b905061210b8282612331565b919050565b6000604051905090565b600067ffffffffffffffff82111561213557612134612469565b5b61213e82612498565b9050602081019050919050565b600081519050919050565b600081519050919050565b600082825260208201905092915050565b600082825260208201905092915050565b600081905092915050565b6000612199826122b3565b91506121a4836122b3565b9250827fffffffffffffffffffffffffffffffffffffffffffffffffffffffffffffffff038211156121d9576121d86123dc565b5b828201905092915050565b60006121ef826122b3565b91506121fa836122b3565b92508261220a5761220961240b565b5b828204905092915050565b6000612220826122b3565b915061222b836122b3565b92508282101561223e5761223d6123dc565b5b828203905092915050565b600061225482612293565b9050919050565b60008115159050919050565b60007fffffffff0000000000000000000000000000000000000000000000000000000082169050919050565b600073ffffffffffffffffffffffffffffffffffffffff82169050919050565b6000819050919050565b82818337600083830152505050565b60005b838110156122ea5780820151818401526020810190506122cf565b838111156122f9576000848401525b50505050565b6000600282049050600182168061231757607f821691505b6020821081141561232b5761232a61243a565b5b50919050565b61233a82612498565b810181811067ffffffffffffffff8211171561235957612358612469565b5b80604052505050565b600061236d826122b3565b91507fffffffffffffffffffffffffffffffffffffffffffffffffffffffffffffffff8214156123a05761239f6123dc565b5b600182019050919050565b60006123b6826122b3565b91506123c1836122b3565b9250826123d1576123d061240b565b5b828206905092915050565b7f4e487b7100000000000000000000000000000000000000000000000000000000600052601160045260246000fd5b7f4e487b7100000000000000000000000000000000000000000000000000000000600052601260045260246000fd5b7f4e487b7100000000000000000000000000000000000000000000000000000000600052602260045260246000fd5b7f4e487b7100000000000000000000000000000000000000000000000000000000600052604160045260246000fd5b6000601f19601f8301169050919050565b7f4552433732313a207472616e7366657220746f206e6f6e20455243373231526560008201527f63656976657220696d706c656d656e7465720000000000000000000000000000602082015250565b7f4f776e61626c653a206e6577206f776e657220697320746865207a65726f206160008201527f6464726573730000000000000000000000000000000000000000000000000000602082015250565b7f4552433732313a207472616e736665722066726f6d20696e636f72726563742060008201527f6f776e6572000000000000000000000000000000000000000000000000000000602082015250565b7f4552433732313a20746f6b656e20616c7265616479206d696e74656400000000600082015250565b7f4552433732313a207472616e7366657220746f20746865207a65726f2061646460008201527f7265737300000000000000000000000000000000000000000000000000000000602082015250565b7f4552433732313a20617070726f766520746f2063616c6c657200000000000000600082015250565b7f4552433732313a2061646472657373207a65726f206973206e6f74206120766160008201527f6c6964206f776e65720000000000000000000000000000000000000000000000602082015250565b7f4552433732313a20617070726f76652063616c6c6572206973206e6f7420746f60008201527f6b656e206f776e6572206e6f7220617070726f76656420666f7220616c6c0000602082015250565b7f4552433732313a206d696e7420746f20746865207a65726f2061646472657373600082015250565b7f4f776e61626c653a2063616c6c6572206973206e6f7420746865206f776e6572600082015250565b7f4552433732313a20696e76616c696420746f6b656e2049440000000000000000600082015250565b7f4552433732313a20617070726f76616c20746f2063757272656e74206f776e6560008201527f7200000000000000000000000000000000000000000000000000000000000000602082015250565b7f4552433732313a2063616c6c6572206973206e6f7420746f6b656e206f776e6560008201527f72206e6f7220617070726f766564000000000000000000000000000000000000602082015250565b6127f781612249565b811461280257600080fd5b50565b61280e8161225b565b811461281957600080fd5b50565b61282581612267565b811461283057600080fd5b50565b61283c816122b3565b811461284757600080fd5b5056fea2646970667358221220db4fb6a85f821208012558782571eba5ad649fe6069d08d98e0613e87896a92c64736f6c63430008040033",
  "linkReferences": {},
  "deployedLinkReferences": {}
}